:020000040000FA
:040000008C217529B1
:08000800A600030E8312A700FD
:10001000851C051968282D1837280830A9000310F9
:10002000AA01051D11280519132885180314AA0C07
:10003000A90B1128051D1A2805191C28051D1E28A5
:10004000051920282A08FA3A031D2828AD14682823
:100050002E0A5F39AB002F3C031968280408A8005A
:100060002A0880002B08AE00280884006828AD10FC
:100070002D100830A900AB01051D3C28AC0C03185D
:100080004328851045288514AB0A05194528A90B76
:100090003C28051D49282B1885102B1C8514051993
:1000A0004F2800000000831685148312051D562872
:1000B0008E01FB308F000C100C18682885185C2806
:1000C0000C186828051960280C186828051D642874
:1000D0008B100B16270E8300A60E260E09007F3903
:1000E000820700344334003441343D343B343C34E3
:1000F000583400344434423440343E340F342934CC
:100100000034003438342A3400341D3410340234BE
:100110000034003400342C341F341E3411340334C2
:10012000003400342E342D34203412340534043499
:100130000034003439342F34213414341334063469
:10014000003400343134303423342234153407344D
:100150000034003400343234243416340834093482
:100160000034003433342534173418340B340A3453
:1001700000340034343435342634273419340C3404
:10018000003400340034283400341A340D34003480
:1001900000343A3436341C341B3400342B340034ED
:1001A00000340034563400340034003400340E344B
:1001B000003400344F3400344B34473400340034BE
:1001C00000345234533450344C344D3448340134B8
:1001D000453457344E3451344A3437344934463434
:1001E00000342F0884002E060319FC280008A20002
:1001F0002F0A5F39AF000311080003180516031C0E
:1002000005120C3085120C303E2185160800851A27
:10021000051E0729851605168316851205128312F9
:100220000310FD200314FD200830A100A00CFD20C8
:10023000A10B1629051683160516851683120800CC
:100240000B12AC00051D2229051019303E210B119F
:10025000831685108312851007303E21AD102D14B2
:100260000B1605148E01FB308F000C100C183A2968
:10027000AD1C36298316851483120800FF3C8100CB
:100280000B110B1D41290800A400A41B08003A30E3
:100290002406031D4E290430A3065D29463024069A
:1002A000031D55290130A3065D2945302406031D91
:1002B0005C290230A3065D290800ED3020212308C7
:1002C000073920210800851A74298E01FB308F0020
:1002D0000C10851E69290C1C7429AA30A000072166
:1002E000FF302021A3015D2108006321F1200319C3
:1002F00075292208A21F8029F03A0319A31776292D
:1003000022086F20003803198A29A31B8038A00017
:1003100044210721A31375298316113081003E3033
:10032000950036308500FF23900083120730990036
:100330004030AE00AF00A301AD01AC01313085000B
:0C0340002130900090308B001014080059
:02400E00D43F9D
:00000001FF
